:100000008BC30000B1C30000AFC30000ADC300004C
:10001000ABC30000A9C30000A7C30000A5C3000034
:10002000A3C30000A1C300000C94091C0C94D31AB4
:100030009BC3000099C3000097C3000095C3000054
:1000400093C3000091C300008FC300008DC3000064
:100050008BC3000089C3000087C300000C94C7173E
:1000600083C3000081C300007FC300007DC3000084
:100070007BC3000079C3000077C3000075C3000094
:1000800073C3000071C300006FC300006DC30000A4
:100090006BC3000069C3000067C3000065C30000B4
:1000A00063C3000061C300005FC300003B503A001F
:1000B0003B543A003B453A00533A000808FF0051D0
:1000C00039150100FF080802FBA8AFABABFF000821
:1000D00008C3C302E0E0BF3C3C0808187E42EBEBDB
:1000E000567E1808080038444454001000D5F08D9E
:1000F00014A1C881CFD9F1AF200000000000003E5C
:100100005B4F5B3E3E6B4F6B3E1C3E7C3E1C183C87
:100110007E3C181C577D571C1C5E7F5E1C00183CE3
:100120001800FFE7C3E7FF0018241800FFE7DBE72C
:10013000FF30483A060E2629792926407F05050713
:10014000407F05253F5A3CE73C5A7F3E1C1C08086F
:100150001C1C3E7F14227F22145F5F005F5F060934
:100160007F017F006689956A606060606094A2FF8D
:10017000A29408047E040810207E201008082A1C7F
:1001800008081C2A08081E101010100C1E0C1E0C4B
:1001900030383E3830060E3E0E06000000000000EB
:1001A000005F00000007000700147F147F14242A5A
:1001B0007F2A12231308646236495620500008072C
:1001C0000300001C2241000041221C002A1C7F1C4D
:1001D0002A08083E0808008070300008080808084F
:1001E000000060600020100804023E5149453E00B6
:1001F000427F400072494949462141494D33181414
:10020000127F1027454545393C4A49493141211162
:1002100009073649494936464949291E0000140054
:100220000000403400000008142241141414141477
:10023000004122140802015909063E415D594E7CD5
:100240001211127C7F494949363E414141227F418A
:1002500041413E7F494949417F090909013E4141E8
:1002600051737F0808087F00417F41002040413FD3
:10027000017F081422417F404040407F021C027FE2
:100280007F0408107F3E4141413E7F090909063E37
:100290004151215E7F091929462649494932030106
:1002A0007F01033F4040403F1F2040201F3F403818
:1002B000403F631408146303047804036159494DF3
:1002C00043007F4141410204081020004141417F29
:1002D000040201020440404040400003070800209F
:1002E000545478407F28444438384444442838449F
:1002F00044287F385454541800087E090218A4A4D6
:100300009C787F0804047800447D40002040403DF4
:10031000007F1028440000417F40007C047804786E
:100320007C080404783844444438FC182424181801
:10033000242418FC7C08040408485454542404045D
:100340003F44243C4040207C1C2040201C3C40304A
:10035000403C44281028444C9090907C4464544C79
:1003600044000836410000007700000041360800D4
:1003700002010204023C2623263C1EA1A161123A7E
:100380004040207A385454555921555579412154CB
:10039000547841215554784020545579400C1E52D0
:1003A0007212395555555939545454593955545474
:1003B000580000457C410002457D420001457C40DB
:1003C000F0292429F0F0282528F07C5455450020F8
:1003D00054547C547C0A097F493249494932324895
:1003E000484832324A4848303A4141217A3A4240FC
:1003F0002078009DA0A07D39444444393D404040D0
:100400003D3C24FF2424487E4943662B2FFC2F2BA0
:10041000FF0929F620C0887E090320545479410041
:1004200000447D413048484A32384040227A007AC0
:100430000A0A727D0D19317D2629292F282629299E
:10044000292630484D4020380808080808080808C0
:10045000382F10C8ACBA2F102834FA00007B0000E7
:1004600008142A142222142A14089500220095AA9E
:10047000005500AAAA55AA55AA000000FF001010B6
:1004800010FF00141414FF001010FF00FF1010F0F4
:1004900010F0141414FC001414F700FF0000FF0007
:1004A000FF1414F404FC141417101F10101F101F55
:1004B0001414141F00101010F0000000001F101082
:1004C00010101F10101010F010000000FF1010107E
:1004D000101010101010FF10000000FF140000FF9B
:1004E00000FF00001F10170000FC04F41414171084
:1004F000171414F404F40000FF00F7141414141477
:100500001414F700F7141414171410101F101F14EC
:100510001414F4141010F010F000001F101F00004D
:10052000001F14000000FC140000F010F01010FF79
:1005300010FF141414FF141010101F00000000F01E
:1005400010FFFFFFFFFFF0F0F0F0F0FFFFFF0000F3
:10055000000000FFFF0F0F0F0F0F38444438447C9A
:100560002A2A3E147E02020606027E027E0263559D
:100570004941633844443C04407E201E2006027EEC
:10058000020299A5E7A5991C2A492A1C4C720172FE
:100590004C304A4D4D303048784830BC625A463D68
:1005A0003E494949007E0101017E2A2A2A2A2A441D
:1005B000445F444440514A444040444A5140000052
:1005C000FF0103E080FF000008086B6B083612365D
:1005D0002436060F090F060000181800000010103E
:1005E000003040FF0101001F01011E00191D1712FC
:1005F000003C3C3C3C0000000000F0F89C8E8783EF
:10060000878E9CF8F00000FEFF0303030303070E30
:10061000FCF80000FEFF0303030303070EFCF800D1
:1006200000FFFF00000000000000FFFF0000FEFFD1
:100630008383838383C7EE7C380000F8FC0E0703B6
:100640000303070EFCF800003F7FE0C08080C0E09D
:100650007F3FFFFF01010101010101FFFF0000FFDA
:10066000FF0C0C0C0C1C3E77E3C100007FFFC0C0E8
:10067000C0C0C0E0703F1F00001F3F70E0C0C0C09E
:10068000E0703F1F00007FFFC1C1C1C1C1E3773EE1
:100690001C00001F3F70E0C0C0C0E0703F1F0000A2
:1006A00000000001FFFF0100000012010002EF0244
:1006B00001404123360000010102030141726475CB
:1006C000696E6F204C4C430041726475626F790013
:1006D00004030904080B00020202000009040000E0
:1006E000010202000005240010010524010101049B
:1006F00024020605240600010705810310004009B5
:10070000040100020A000000070502024000000781
:10071000058302400000901D11241FBECFEFDAE0D8
:10072000DEBFCDBF11E0A0E0B1E0E6E8FFE302C02C
:1007300005900D92A03CB107D9F726E0A0ECB1E0FE
:1007400001C01D92A83DB207E1F713E0CCE8D3E069
:1007500004C02197FE010E94B51ECB38D107C9F70E
:100760000E94B7170C94B71F4BCC8091C101811127
:100770000DC01092CB011092CC0185EA91E08093DC
:10078000C9019093CA0181E08093C10189EC91E095
:10079000089580EC91E00895E8DF0E9455120E94D0
:1007A0006B130E948713E1DF8CE30E94EE0EDDDF06
:1007B0000C94320F089501960895CF960895CB9624
:1007C00008958D5B9F4F08958C5B9F4F08958B5BC1
:1007D0009F4FFC0180810895DC01AA5BBF4F8B5BBA
:1007E0009F4FFC0180818C9360830895855A9F4FB1
:1007F000FC0140835183628373830895855A9F4F20
:10080000FC0160817181828193810895815A9F4F9B
:10081000FC0140835183628373830895815A9F4F03
:10082000FC0160817181828193810895895B9F4F72
:1008300008958091CD01811111C085ED91E00E9454
:100840004A0D86ED91E02FD410921A0210921B02ED
:100850008CE192E0A0D081E08093CD0185ED91E024
:100860000895AF92BF92DF92EF92FF920F931F9382
:10087000CF93DF935C018B01C0E0D0E0F801D08022
:100880000F5F1F4F7501EC0EFD1EC7010E94641F14
:10089000D81621F06D2DC7010E946C1F2196C4301F
:1008A000D10561F7DF91CF911F910F91FF90EF90EC
:1008B000DF90BF90AF9008956F927F928F929F923A
:1008C000AF92BF92CF92DF92EF92FF920F931F935E
:1008D000CF93DF9300D000D0CDB7DEB78C0184E199
:1008E000A82EB12C90E1E92EF12C3E0185E0680E96
:1008F000711C47016E018FEFC81AD80AC4010E940B
:10090000641FF6019FEFC91AD90A80838FEF881AF6
:10091000980AC614D70491F789819A81AB81BC816A
:10092000680124E0C20ED11C873F9445AE46B94110
:1009300019F1F8011082118212821382860188E077
:10094000E80EF11C88E0A80EB11C88E3E816F1045B
:1009500081F60F900F900F900F90DF91CF911F9124
:100960000F91FF90EF90DF90CF90BF90AF909F904E
:100970008F907F906F9008954501C4010E94641F7D
:10098000F8010F5F1F4F80838FEF881A980A0C15AC
:100990001D0599F7D3CF90CF8F929F92AF92BF92C0
:1009A000CF92DF92EF92FF92DC016A017B01FC01A2
:1009B00090E04081518162817381292F2F5F4C1516
:1009C0005D056E057F0530F13496922F253089F74D
:1009D00080E090E0FF90EF90DF90CF90BF90AF90DD
:1009E0009F908F90089581909190A190B190808276
:1009F0009182A282B3822F5F2530A9F7660F771FFD
:100A0000660F771FA60FB71FCD92DD92ED92FD9274
:100A100081E0E0CF692F70E084E0989FF00111241D
:100A2000EA0FFB1FE9CF0F931F93CF93DF938C0146
:100A3000C0E1D0E062E471E0CE0113DFB801CE0185
:100A400004960FDF28960C5F1F4FC833D10591F72E
:100A5000DF91CF911F910F910895FC0185819085C1
:100A60009111880F0895FC0187810895FC019781F9
:100A7000690F653608F064E667830895FC01908588
:100A800081E0982790870895FC018085803029F0C7
:100A90008781803029F0815087838781811101C04F
:100AA000108608958F929F92AF92BF92CF92DF925D
:100AB000EF920F931F93CF93DF93EC015A016B01D9
:100AC0004901CBDFE82E9401A501B601CE01C5D0C6
:100AD000CE01DF91CF911F910F91EF90DF90CF90DA
:100AE000BF90AF909F908F90CFCF1F93CF93DF9306
:100AF000EC01122FE1D01D831E82DF91CF911F9157
:100B00000895FC0165830895FC0166830895FC0146
:100B10009681923099F078F4808191112CC0928165
:100B2000482F490F5527551F420F511D64171506B1
:100B300074F1820F28C0933071F008958181622F83
:100B4000650F7727771F681771051CF4821B818357
:100B500008955183089581819381482F490F552726
:100B6000551F420F511D7417150614F0820FEFCF59
:100B7000791B71830895642F620F7727771F681799
:100B800071051CF4821B8083089540830895691BBE
:100B9000608308959F92AF92BF92CF92DF92EF92BF
:100BA000FF920F931F93CF93DF93EC015B0198D0DB
:100BB000803009F43CC0E8808A81E80EFF24FF1CE5
:100BC000C50182D0E81AF108C5017ED0C82EC50142
:100BD00083D0C80EDD24DD1C8881C81AD1080981A4
:100BE0008B81080F1127111FC5016ED0091B104002
:100BF000C5016AD0992EC5016FD08981292D290F91
:100C00003327331F281B3040B701CE14DF040CF408
:100C1000B601A801201731070CF4A9016417750764
:100C2000A4F48881CE14DF0474F48C0D8883DF91E2
:100C3000CF911F910F91FF90EF90DF90CF90BF90D9
:100C4000AF909F9008958E19F1CF201731071CF4B3
:100C5000820F8983ECCF801BFCCFCF92DF92EF9283
:100C60000F931F93CF93DF93EC0169012E2D4FDF7C
:100C7000B601CE018FDFB801CE01DF91CF911F9178
:100C80000F91EF90DF90CF9085CFEF92FF920F936F
:100C9000CF93DF93EC017901202F39DFB701CE012B
:100CA000DF91CF910F91FF90EF9074CF0F93FC01E4
:100CB0000581EBDF0F910895FC016083718342830E
:100CC000538381E084830895FC018081918108959C
:100CD000FC01608371830895FC01828193810895F2
:100CE000DC01FB018481803051F16A177B0711F42C
:100CF00080E008952C91308112968C911297820F8A
:100D00009927991F381719069CF78281830F992715
:100D1000991F2817190664F711964C913181129684
:100D20008C91840F9927991F381719060CF7238186
:100D3000230F3327331F81E042171306CCF60895A3
:100D4000FC011482089521E0FC0124830895FC0134
:100D5000848191E089270895AAD7803019F069DD50
:100D600060E03ACD0895CF92DF92EF92FF920F9319
:100D70001F93CF93DF936C0174D7C82FF6DC8C01DF
:100D8000D0E07E018FE2E81AF10868E070E0C70168
:100D90000E943D1360E671E0C8010E940D1762E1F8
:100DA00070E0C7010E943D136FE471E0C8010E942A
:100DB0000D176CE170E0CE014B970E943D1366E485
:100DC00071E0C8010E940D17C601DF91CF911F91FC
:100DD0000F91FF90EF90DF90CF90BECFC6DC0E94C6
:100DE000971188E00E949F11803019F022DD60E0A9
:100DF000F3CC08954F925F926F927F928F929F9261
:100E0000AF92BF92DF92EF92FF920F931F93CF9317
:100E1000DF937C0126D7082FA8DCEC0110E068E006
:100E200070E0C80149970E943D136EE171E0CE0168
:100E30000E940D17F701608171818281938114D71F
:100E4000282F30E0275F3F4F359527953195219525
:100E5000310945E0429FC001439F900D112460E19C
:100E600070E0800F911F0E943D1365E171E0CE019B
:100E70000E940D17F70140815181628173812AE040
:100E800030E0CE010E946817D4DC4C01CFDC5C015D
:100E9000D12CF5014080518062807380C401AEDCAA
:100EA0004616570668067906C1F084E0A80EB11C04
:100EB000D3948D2D853069F7C701DF91CF911F91B4
:100EC0000F91FF90EF90DF90BF90AF909F908F9029
:100ED0007F906F905F904F9081CF68E170E0C80184
:100EE00088970E943D1364E071E0CE010E940D17C7
:100EF0004AE050E06D2DCE010E947517DDCFFC0158
:100F000040835183628373830895ABD68450945099
:100F10000895CF92DF92EF92FF920F931F93CF939A
:100F2000DF938C01EB01FC0180819181C096CCDEC6
:100F3000E82ED92EF80180819181C096CDDE082F50
:100F4000C92ECE01C1DEF82E192FCE01C5DE282F05
:100F50002F0D3327331F60E0E2161306C4F4202F51
:100F60002E0D3327331F61E0F216130684F4292F68
:100F7000210F3327331F63E0D216130644F48C2D60
:100F80008D0D9927991F181719065CF062E0CE01A4
:100F9000DF91CF911F910F91FF90EF90DF90CF9055
:100FA000B3CDDF91CF911F910F91FF90EF90DF9024
:100FB000CF900895CF9380914402811120C0D5DB5A
:100FC00080915002811108C01092280188E080931E
:100FD000290181E08093500280912801909129019C
:100FE000A0912A01B0912B0180934C0290934D0265
:100FF000A0934E02B0934F0281E08093440220916F
:101000004E022850330B432F440F440B542F609152
:101010004C0270E080E090E00E949917C62F20916A
:101020004F022850330B432F440F440B542F609131
:101030004D0270E080E090E00E949917962F8C2F6F
:10104000CF910895AF92BF92CF92DF92EF92FF922D
:101050000F931F93CF93DF93EC017B016A0159013A
:10106000A9DFBC01CE0134DEB701CE0139DE81112A
:10107000F7CFB601CE0134DE8111F2CFB501CE013A
:101080002FDE8111EDCFB801CE012ADE8111E8CF2C
:10109000DF91CF911F910F91FF90EF90DF90CF9054
:1010A000BF90AF900895AF92BF92CF92DF92EF9230
:1010B000FF920F931F93CF93DF93EC011882198255
:1010C0001A821B821C821D821E821F828AE08887F0
:1010D00019861A861B868C871D861E861F868CE3C2
:1010E000888B198A1A8A1B8A8C8B1D8A1E8A1F8AF2
:1010F000188E0BDF6E0129E1C20ED11C21E048E001
:1011000058E0BC01C601F1DC18A219A28E010E5DE7
:101110001F4F50DF21E048E058E0BC01C801E5DC8A
:101120005E0189E2A80EB11C21E048E058E060E0D1
:1011300070E0C501DADC7E0180E3E80EF11C3ADFE5
:1011400048E058E0BC01C701B7DDE59648E058E04B
:1011500060E070E0CE01B0DDCE01F2DDC501F0DD72
:10116000B701C601BDDD811115C0B601C801B8DDEA
:10117000811115C0B701C801B3DD811110C0DF9125
:10118000CF911F910F91FF90EF90DF90CF90BF9084
:10119000AF9008950FDFBC01C7019ADDE1CF0ADFF0
:1011A000BC01C80195DDE1CF6F927F928F929F9233
:1011B000AF92BF92CF92DF92EF92FF920F931F9365
:1011C000CF93DF93EC0149967FDDF82EE92ECE0117
:1011D000C0967ADDD82EC92E8E010B5C1F4FC80138
:1011E00073DDB82EA92ECE0182966EDD982E892E43
:1011F000A996CE0169DD782E692E6E2D70E020E073
:1012000043EE50E08F2D90E00E949C16682D70E018
:1012100020E049ED50E0892D90E00E949C166C2D55
:1012200070E020E045EC50E08D2D90E00E949C168F
:10123000CE018DDD811109C0662D70E020E04FECFC
:1012400050E0872D90E00E949C16C80180DD81113E
:1012500017C06A2D70E020E04BEB50E08B2D90E042
:10126000DF91CF911F910F91FF90EF90DF90CF9082
:10127000BF90AF909F908F907F906F900C949C1632
:10128000DF91CF911F910F91FF90EF90DF90CF9062
:10129000BF90AF909F908F907F906F9008950F9325
:1012A0001F93CF93DF938C0160DAEC0160E070E074
:1012B000CB010E943D1368EB70E0CE010E94E8165E
:1012C000F80140815181628173812AE030E0CE01D2
:1012D0000E94681764EB70E0CE010E94E816C80116
:1012E0004996C1DB4AE050E0682FCE010E94751795
:1012F00060EB70E0CE010E94E816F8014489558940
:10130000668977892AE030E0CE010E9468176CEA8E
:1013100070E0CE010E94E816F80144855585668587
:1013200077852AE030E0CE01DF91CF911F910F91B8
:101330000C946817CF93DF93EC0117DAF8D780E8A5
:10134000FED762E0811105C080E1F9D7803031F02D
:1013500063E0CE014996DF91CF91D6CB80E2EFD703
:1013600061E08111F6CF80E4EAD760E08111F1CF2E
:1013700088E0E5D7803029F0CE014996DF91CF9102
:101380007DCB84E0DCD7803029F053DA60E0DF9158
:10139000CF9122CADF91CF910895CF92DF92EF9241
:1013A000FF920F931F93CF93DF93EC016C0189E1C0
:1013B000C80ED11C7E0180E3E80EF11CB701C60106
:1013C0008FDC803011F188819981AA81BB810A96D6
:1013D000A11DB11D88839983AA83BB83DAD961E0FB
:1013E00070E080E090E037D487EE93E00E947113C4
:1013F000C701A6DC8C859D85AE85BF850197A04081
:10140000B0408C879D87AE87BF87C701A0DC803046
:1014100071F0C70198DC8E01075D1F4F9E012E5DA4
:101420003F4FAE014B5C5F4FB601C7010BDEDF9152
:10143000CF911F910F91FF90EF90DF90CF90089583
:10144000CF92DF92EF92FF920F931F93CF93DF9390
:10145000EC016C0189E1C80ED11C7E0185E3E80E28
:10146000F11CB701C6013CDC8030D1F06AE0C60156
:10147000FDDA88819981AA81BB810196A11DB11DE8
:1014800088839983AA83BB8384D961E070E080E07C
:1014900090E0E1D387EE93E00E947113C70150DC26
:1014A000C70155DC8030C9F064E670E080E090E070
:1014B0000E948117161617061806190674F0C70140
:1014C00042DC8E01075D1F4F9E012E5D3F4FAE0136
:1014D000405D5F4FB601C701B5DDDF91CF911F9130
:1014E0000F91FF90EF90DF90CF9008958F929F9291
:1014F000AF92BF92CF92DF92EF92FF920F931F9322
:10150000CF93DF9300D0CDB7DEB76C015C0182E2F0
:10151000A80EB11C760185E3E80EF11CB701C501E8
:10152000DFDB8601075D1F4F811105C0B701C801D0
:10153000D7DB803011F0C70103DC460180E3880E61
:10154000911CB401C501CCDB811105C0B401C801F7
:10155000C7DB803011F0C401F3DBC982DA82B50148
:10156000CE010196D6DCC801F2DB811146C0C7016D
:10157000EEDB81113EC0C701A7DBB82ED92EC70113
:10158000ABDBF82EA92EC8019FDBC82EE92EC801BF
:10159000A3DB282F2C0D3327331F60E0B216130670
:1015A000C4F42F2D2B0D3327331F61E0C216130611
:1015B00084F4292F2E0D3327331F63E0D216130630
:1015C00044F48A2D8D0D9927991FE8161906ACF061
:1015D00062E0C8010F900F90DF91CF911F910F91A2
:1015E000FF90EF90DF90CF90BF90AF909F908F9043
:1015F0008BCAB801CE0101968CDC0F900F90DF9161
:10160000CF911F910F91FF90EF90DF90CF90BF90FF
:10161000AF909F908F900895AF92BF92CF92DF923C
:10162000EF92FF920F931F93CF93DF93CDB7DEB767
:1016300029970FB6F894DEBF0FBECDBF8C016C01A9
:1016400082E2C80ED11CF80184819581A681B78100
:1016500085309105A105B10508F084E0682F6F5F22
:10166000C6014FDA780189E2E80EF11CF8018481A5
:101670009581A681B78185309105A105B10508F056
:1016800084E0682F6F5FC7013CDAC70159DBF801BE
:1016900084819581A681B7810397A040B04010F066
:1016A000C70151DBF8012481358146815781C90189
:1016B000DA010596A11DB11D880F991FAA1FBB1F36
:1016C00080879187A287B38784879587A687B78706
:1016D000A4E1B0E00E94BB1EDC01CB01CC96A11DB1
:1016E000B11D808B918BA28BB38B848B958BA68B3A
:1016F000B78B108EC801C59623DB07DC21E048E0DC
:1017000058E0BC01CE010196F0D91886198689E00F
:101710009E012F5F3F4FF901D801599601900D921C
:101720008A95E1F7580180E3A80EB11C43DCBC01A7
:10173000C501CEDA075E1F4FB801C501D1DA8111AC
:1017400036C038DCBC01C601C3DAB801C601C8DA4C
:101750008111F7CFB501C601C3DA8111F2CFC701FC
:10176000F6DA811113C026DCBC01C701B1DAB6017B
:10177000C701B6DA8111F7CFB801C701B1DA81111B
:10178000F2CFB501C701ACDA8111EDCF29960FB6C2
:10179000F894DEBF0FBECDBFDF91CF911F910F91A7
:1017A000FF90EF90DF90CF90BF90AF90089502DC54
:1017B000BC01C5018DDAC0CFFC01148215821682EE
:1017C0001782108211821282138226CFFC0144817B
:1017D0005581668177814F5F5F4F6F4F7F4F4483A5
:1017E00055836683778318CF0F931F93CF93DF932F
:1017F000EC01DADCCE0153DDCE019CDDCE01CDDD86
:10180000CE011EDECE0172DE0E94B5038091380249
:10181000811121C00E94B50380915002811108C03E
:101820001092280188E08093290181E08093500282
:101830008091280190912901A0912A01B0912B015A
:101840008093400290934102A0934202B0934302DE
:1018500081E08093380284E0CAD2803089F04091E0
:1018600040025091410260914202709143028E0108
:10187000075D1F4F9E012E5D3F4FCE01499612D945
:1018800080E1B5D28030D9F04091400250914102C0
:1018900060914202709143028E01075E1F4F9801D2
:1018A000CE01829603DA409140025091410260914C
:1018B0004202709143029801CE018996F7D9888D32
:1018C0008F5F888F4C855D856E857F85452B462B88
:1018D000472B99F4CE017ADF0E9419048C014C81C8
:1018E0005D816E817F810E94060463E0C801DF9103
:1018F000CF911F910F910C94EC036CE30E94441E56
:10190000911130C0188E8C899D89AE89BF8901974D
:10191000A040B0408C8B9D8BAE8BBF8B892B8A2BCC
:101920008B2B01F50E9419048C01488159816A8131
:101930007B810E94F60365E0C8010E94EC03C801A8
:101940000E9416048C01488159816A817B8124D8C8
:10195000803011F0C80167D8CE01DF91CF911F917F
:101960000F912ACFDF91CF911F910F910895FC0124
:101970004083518362837383089599D1803029F025
:101980000E94190461E00C94EC030895EF92FF9219
:101990000F931F93CF93DF938C01FC0160817181C2
:1019A0008281938161D15DD18451D82F9450C92F08
:1019B0000E94B5037C016C2F70E08D2F90E05DD606
:1019C00061E771E0C7010E940D17F8014081518164
:1019D000628173812AE030E0C7010E946817C80164
:1019E000DF91CF911F910F91FF90EF90C6CF4F9253
:1019F0005F926F927F928F929F92AF92BF92CF929F
:101A0000DF92EF92FF920F93CF93DF93C82F2B01BA
:101A1000042FE92EF12C0E94B5033C01D0E00030E8
:101A200019F10E94B50301E0670184E0C80ED11CE2
:101A300096015E0183E0A81AB108A501B7014E0125
:101A400087E0881A9108C4012ED29701285F3F4F82
:101A5000A401B601C50127D29601AE014550504000
:101A6000B601CE010D971FD2B701CE0106D6B20145
:101A7000C301DF91CF910F91FF90EF90DF90CF9056
:101A8000BF90AF909F908F907F906F905F904F909E
:101A90000C940D1723E0FC0120830E94B50381E024
:101AA000F5C5CF93DF93EC010E94B50340D480E8E5
:101AB00046D4803071F088818330B1F0843039F0C1
:101AC000823019F0DF91CF91089583E00EC082E05B
:101AD0000CC080E134D4803051F088818330B9F378
:101AE000843099F3823071F784E08883EBCF88E00B
:101AF00026D4803039F30E9419046881DF91CF9198
:101B00000C94EC03FF920F931F93CF93DF938C0100
:101B10000E94B503C1D5C82FA4D0F82ED92F2EE12D
:101B2000C29FC0011124969587952F2D281B822FC7
:101B300041E0F8019081933009F040E06DE871E0F8
:101B40009D2F55DF27E3C29FC001112496958795ED
:101B50002F2D281B822F9D2F965F41E0F8012081B9
:101B6000223009F040E062E871E041DF2DE2C29FDF
:101B7000C001112496958795F81A8F2D9D2F9C5E94
:101B800041E0F8012081243009F040E069E771E08C
:101B90002EDFC801DF91CF911F910F91FF9081CF70
:101BA00086D0803029F00E94190460E00C94EC0388
:101BB00008958F929F92AF92BF92CF92DF92EF9251
:101BC000FF920F931F93CF934C014BD0282F295195
:101BD000330B69010E94B5038C0168E070E0C60117
:101BE0004CD566E971E0C8010E940D170E941904E6
:101BF0000E9416045C0180E1E82EF12CC0E0B701E0
:101C0000C6013BD54AE050E06C2FC8010E94751711
:101C100063E971E0C8010E940D17F50141915191EE
:101C2000619171915F012AE030E0C8010E9468175C
:101C3000CF5F88E0E80EF11CC53009F7C401CF91F1
:101C40001F910F91FF90EF90DF90CF90BF90AF90DA
:101C50009F908F90A5CF9B01AC01ACE3B0E00C94BA
:101C6000BB1E80E490E20895CF92DF92EF92FF9244
:101C7000CF93C1E000977040604091F0C0E0CF5F2B
:101C80006B017C012AE030E040E050E00E94771ECA
:101C9000B901CA012AE0C216D104E104F10478F7BF
:101CA0008C2FCF91FF90EF90DF90CF9008950E94FE
:101CB000B5033DD380E843D3811112C080E13FD307
:101CC00081110EC080E23BD381110AC080E437D37A
:101CD000811106C088E033D3811102C084E02FC394
:101CE00008950C94CC030F931F93CF93DF930E941E
:101CF000B5030E94C903FFD488D0803009F447C0DF
:101D0000CED40E941904EC010E94E7038330E9F06D
:101D100048F48130A9F0823071F4CE010E94E103D1
:101D200048DF04C0843069F18530E9F0DF91CF915C
:101D30001F910F918DC2CE010E94DA03E3DEF6CF30
:101D4000CE010E94DB0350DDF1CFCE010E94DD0306
:101D50008C01CE010E940E04AB01BC01C80107DE5C
:101D6000C80114DEE3CFCE010E94DF038C01CE0157
:101D70000E94FE03AB01BC01C801C1D8C8013AD81A
:101D8000D5CFCE010E94E4030E94B306CFCFDF91EE
:101D9000CF911F910F91089580E090E008950895EC
:101DA0001F93CF93DF93162FFC01C081D181CE0109
:101DB0000E94641F181739F0612FCE01DF91CF9177
:101DC0001F910C946C1FDF91CF911F91089582E3B6
:101DD00090E04BD51AD58111FACF0895682F70E0A5
:101DE00088EE93E00E94641E60932E010895682F90
:101DF00070E080916402909165020E94501E9C01E7
:101E000081E0232B09F080E00895CF930E940F1802
:101E100080916102962F981B892FC0915F02C0307C
:101E200041F09093600210925F02C0E08C2FCF913E
:101E3000089590912E01891728F48F5F8917B0F7C4
:101E400099D4F4CF81E080935F0260936102809126
:101E500064029091650201968093640290936502FA
:101E6000C1E0E4CFDAD40C947B1780389105B8F444
:101E700060347105A0F420E191E061FD94E060FD23
:101E8000990F62FD9295687F269FD0011124A80FBB
:101E9000AA59BD4F8C9140FF03C0892B8C930895A4
:101EA00090958923FBCF2F923F924F925F926F9232
:101EB0007F928F929F92AF92BF92CF92DF92EF92DA
:101EC000FF920F931F93CF93DF9300D00F92CDB764
:101ED000DEB76B014A835B837901098339016C1892
:101EE0007D081AF43B01621A730A0A811B81081BE0
:101EF000190B2AF48C012A813B81021B130B061556
:101F000017055CF03E2D2F2DEA80FB803A832B8352
:101F10003C2D2D2D6C01832F922FEC14FD045CF0D1
:101F20003A812B818A839B83832F922F3E2D2F2DE5
:101F30007601C32ED22E26014E185F081C012A817D
:101F40003B81221A330A1AF41901281A390A42016C
:101F500057FE03C02FEF821A920A959487942A8124
:101F60003B8128173907BCF18FEFA82E880FBB08DB
:101F700019C04981B7018A819B81061517051CF09C
:101F80006A817B81C70171DF8218930842F48A81DC
:101F90009B818A0D9B1D8A839B83840C951C8FEFEC
:101FA000E81AF80ACE14DF0424F70F900F900F9070
:101FB000DF91CF911F910F91FF90EF90DF90CF9025
:101FC000BF90AF909F908F907F906F905F904F9059
:101FD0003F902F90089581E0C8CFE6E6F2E08111AE
:101FE0008FEF002481938193819381930394D1F7A0
:101FF000089580E0F2CF2F923F924F925F926F92BE
:102000007F928F929F92AF92BF92CF92DF92EF9288
:10201000FF920F931F93CF93DF9300D000D000D097
:10202000CDB7DEB749835A83B22E8E2C9C012B0D7F
:10203000311D121613060CF04BC0803891050CF0C0
:1020400047C09B01200F311D121613060CF040C033
:1020500060347105ECF5462F77FF04C044275527FF
:10206000461B570B477050E09B0177FF02C0295F6A
:102070003F4F287F246035952795E8F777FF07C005
:102080002150304068E070E0641B750BAB01E02F1D
:10209000E695E695E6954E2E512C077019F06FEFF8
:1020A000461A560A30FB722F66277795679577F99F
:1020B000680F791F1B01420E531EE12CF12C3C01CD
:1020C0006B0C711CE8E0E41B9E2E24153505C9F449
:1020D0000F900F900F900F900F900F90DF91CF9176
:1020E0001F910F91FF90EF90DF90CF90BF90AF9036
:1020F0009F908F907F906F905F904F903F902F9028
:1021000008952830310521F32F3F6FEF360794F003
:10211000B1016A597D4F6B837C83E981FA81EE0DB1
:10212000FF1DD101AA51BD4FAD83BE838C01601646
:10213000710641F42F5F3F4FEB0CF11C60E8260E57
:10214000311CC3CF00381105A9F317FD2BC02F3F59
:10215000320709F46BC0AB81BC81AC90682D613053
:1021600089F5C490042E02C0CC0CDD1C0A94E2F761
:10217000AC28AB81BC81AC924030540799F0273039
:10218000310581F0AD81BE81AC90682D613089F55B
:10219000C490D12C092C02C0D594C7940A94E2F7BC
:1021A000CA28CC926B817C816F5F7F4F6B837C836D
:1021B00031960F5F1F4F6D817E816F5F7F4F6D8303
:1021C0007E83B5CF81100CC0C490D12C042E02C0E8
:1021D000CC0CDD1C0A94E2F7C094D094AC20C9CF9B
:1021E000C490042E02C0CC0CDD1C0A94E2F7AC248F
:1021F000C0CF81100EC0C490D12C092C02C0D59440
:10220000C7940A94E2F7C094D094CA20AD81BE81ED
:10221000C8CFC490D12C092C02C0D594C7940A947D
:10222000E2F7AC24AD81BE81AC92BCCF40305040CF
:10223000A8CFEF920F93EE24E39400E128E54AEF54
:1022400055E0BC0184E190E0D6DE0F91EF90089557
:1022500060E086E692E09CC2682F86E692E098C233
:10226000CF93C82FD2D28C23982F81E09C1380E08B
:10227000CF91089580E8F4DF803069F085EA96D246
:1022800040E060E080E099D28091640080628093B9
:10229000640070D2FECF0895FF920F931F93CF93E7
:1022A000DF9300D0CDB7DEB7182F062FF42ED8DF7E
:1022B0008030D1F061E089E090D288EC90E0D5D216
:1022C00060E0802F8AD282E089831A826F2DCE014E
:1022D000019666DD84EF91E0C8D261E0802F7DD267
:1022E000812FBEDF8111FCCF0F900F90DF91CF9136
:1022F0001F910F91FF90089584E0B2DF811103C018
:1023000061E089E06AC260E089E067D24FEF6BE08C
:1023100084E8C2DF40E06AE084E1BEDF88EC90E060
:10232000A4D2EACFBED294DFA5DFE6DFCDC1809193
:1023300063028093620269D2809363020895909150
:102340006202982331F490916302982381E0911105
:1023500001C080E0089581E090E00E94641F8695AE
:102360008170089581E090E00E94641F817008955B
:1023700081E090E00E94641F82FB882780F9089525
:10238000EF92FF920F931F93CF93DF937C01E3DFD4
:10239000182F803091F0ECDF082F803019F060E0CA
:1023A0008AE01BD2C1EFDFEF80E45ADF803069F0B2
:1023B00041E061E081E001D210E0812FDF91CF9117
:1023C0001F910F91FF90EF900895003049F0C430B5
:1023D000D10531F461E08AE000D260E08BE0FDD10C
:1023E00081E03ADFCE01F701099532DF8FE090E01E
:1023F0003CD22196C931D105B9F6003031F061E007
:102400008BE0EBD160E089E0E8D180E991E02DD26A
:1024100061E089E0E2D1D1CF0F931F93CF93DF9397
:102420008C01A0DF803069F18AE090E00E94641F97
:10243000982F91509E3F28F522E320935D02109241
:102440005E0228E320935B0210925C02CBE0D0E0B6
:10245000F8010190F081E02D0190F081E02D682FCE
:10246000C8010995CE010E94641F2196C131D10592
:1024700079F7EEDE88EE93E0DF91CF911F910F9117
:10248000F4C1DF91CF911F910F910895CF93DF9306
:10249000EC0189E191E174DF803021F0CE01DF9120
:1024A000CF91BACFDF91CF910895CF93DF93EC0115
:1024B00039DFCE01EBDFDF91CF9189CC2F923F92B4
:1024C0004F925F926F927F928F929F92AF92BF9244
:1024D000CF92DF92EF92FF920F931F93CF93DF93F0
:1024E00000D000D000D00F92CDB7DEB76C837D83D3
:1024F00029830A833E2C25E0429F80011124065047
:102500001F4F8E839F83412C842D512C853021F0C9
:10251000F80154900F5F1F4FEC80FD8088E0282E5B
:102520006E807F80630C711C4701830C911C50FCF2
:1025300006C08A819981891749F08A8101C0898101
:102540008B83CE80DF80C614D70441F556942A943D
:1025500074012110E9CF43948E819F81830D911DD9
:102560008E839F83842D863079F627960FB6F89454
:10257000DEBF0FBECDBFDF91CF911F910F91FF90B6
:10258000EF90DF90CF90BF90AF909F908F907F9013
:102590006F905F904F903F902F90089557014B811F
:1025A000B501C60162DC8FEFA81AB80AA814B904F5
:1025B000B1F78FEFC81AD80AC6CFEF920F93462F04
:1025C0006D3049F48091580281110BC081E090E098
:1025D0000F91EF9008956A3021F480915802803075
:1025E00099F080915902803019F120912C013BEF34
:1025F0003203C001112480589F4F20915D02309119
:102600005E0282179307A4F410925D0210925E029C
:1026100020912C0188E0289F9001112480915B0279
:1026200090915C02820F931F80935B0290935C02F7
:102630004A3021F480915802803041F260915B026F
:1026400070915C02E0902C0100915A0220912D01C2
:1026500080915D0290915E0231DF20912C0180918A
:102660005D0290915E0236E0239F800D911D112442
:1026700080935D0290935E02A9CF80935D02909358
:102680005E0260935B0270935C020895811101C049
:1026900081E080932C01089580912C010895A9DC9C
:1026A00010925B0210925C0210925D0210925E0228
:1026B00008953E9A3F9A81E08093660608951092AD
:1026C00066063E983F98089582E090E00E94641F5D
:1026D0008111EFCFF4CF109290008AE080939100A7
:1026E00008956093670620E42093900090939900EA
:1026F00080939800089580916706803039F081506A
:1027000080936706811102C0109290000895109284
:10271000C00088E08093C1001092C3001092BF00F7
:102720001092CF00089585B1806F85B984B1877EFE
:1027300084B984B1876E84B95E9A5F988AB1806DDE
:102740008AB9769A6E9881B3806F81BB899880B37D
:102750008D7080BB08955C9A08955C98089580E51B
:102760008CBD81E08DBD08958EBD00000DB407FEC7
:10277000FDCF089581E083BF889513BE089581E859
:102780008093640080916500816080936500089566
:10279000FC0180E098E000800EBC6111012C0197E3
:1027A00080FDFDCF0192B9F70DB40895CF93C82FE6
:1027B000D4DF8C2FD9DFCF91CECF803041F02E9A4D
:1027C000603039F02F9A403031F02D9A08952E98CC
:1027D000F7CF2F98F8CF2D9808958A3031F46030D4
:1027E00011F02E9A08952E9808958B3031F46030B0
:1027F00011F02F9A08952F980895893029F46030A8
:1028000011F02D9A08952D9808958FB18095807FAD
:10281000669B88601C9B846008950F931F93809132
:1028200064008E7F8093640080917A00806480933E
:102830007A0080917A0086FDFCCF0091780010919B
:102840007900F9D3AB01BC01809164008160809371
:102850006400980110E000E0040F151F261F371FC9
:10286000B801C9011F910F910895BC0180E090E06B
:1028700002C4CF93DF9385E090E0F7DF5F9A85E0B5
:1028800090E0F3DF5E9869DFCDEED0E0FE01849149
:102890006BDF219680E0CA3FD807C1F7DF91CF9167
:1028A0005ACF81EC80937C003EDF59DFE2DF67CFB7
:1028B0004F925F926F927F928F929F92AF92BF9250
:1028C000CF92DF92EF92FF920F931F93CF93DF93FC
:1028D000FB01E9011C2DDC01A00FB11D1A161B061E
:1028E0000CF06CC0803891050CF068C09B012E0D77
:1028F000311D121613060CF061C0603471050CF026
:102900005DC04030540709F459C0262F2770822E2D
:102910009B0177FF02C0295F3F4F287F24603595D8
:102920002795E8F7722FF7FF02C081107150AA2493
:10293000BB24A81AB90A97FD02C0A12CB12C20E82B
:10294000281B922EA038B0400CF4902E9A18672FB6
:1029500067FD619561507F3F0CF060E031E02E2D06
:10296000277009F430E0E694E694E694E30E2E2D09
:1029700030E0270F311D77FD3A95293030401CF0AB
:1029800028E0271BE22E362F370F20E83203D00134
:102990001124A80FB91FAA0DBB1D3D016003F00152
:1029A0001124EA0DFB1D4E0F5F1F133009F421C1E6
:1029B000B0F4113009F4CAC0123089F1DF91CF911F
:1029C0001F910F91FF90EF90DF90CF90BF90AF904D
:1029D0009F908F907F906F905F904F9008951A3FD7
:1029E00081F01B3F59F7E70EC92CD12C602F6919D4
:1029F000770B3E1519F3D301AA59BD4FED01FA012A
:102A000098C0E70EC92CD12C602F6919770B3E15A1
:102A1000A9F2D301AA59BD4FED01FA0160C08FEFB1
:102A200090E0082C02C0880F991F0A94E2F75C011D
:102A3000A094B0942B2DE70EC92CD12C602F6919CE
:102A4000770B3E1509F4BACFD301AA59BD4FED015A
:102A5000FA011DC0849190E0082C02C0880F991FD4
:102A60000A94E2F72C0137FD0EC118811A21182BA8
:102A70001883811451F0373044F48E0100581F4FF1
:102A8000D8018C91822385298C93319621968E2FA3
:102A9000841B8915F8F24C0D5D1D3F5F460F571FD3
:102AA00080E8680E711CCDCF849190E0082C02C0A4
:102AB000880F991F0A94E2F75C0137FDE7C018817F
:102AC000182B1883811449F037303CF48E010058DC
:102AD0001F4FD8018C918B298C93319621968E2F84
:102AE000841B891508F34C0D5D1D3F5F460F571F72
:102AF00080E8680E711C8BCF849190E0082C02C096
:102B0000880F991F0A94E2F737FDC3C02881182F58
:102B1000109521232883811451F0373044F48E011D
:102B200000581F4F9095D8018C9189238C93319632
:102B300021968E2F841B8915F8F24C0D5D1D3F5F89
:102B4000460F571F80E8680E711C53CFCE0FDF1F52
:102B50006E012E2D270FE92CF12C602F6919770BB0
:102B6000321709F42BCFD301AA59BD4FED0100E074
:102B700010E030C0F601E00FF11F849190E0082CC6
:102B800002C0880F991F0A94E2F7809590952C0156
:102B9000FA01E00FF11FE491F0E0082C02C0EE0F03
:102BA000FF1F0A94E2F737FD6BC0B880B420BE2A3D
:102BB000B882811461F0373054F45E0180E8A80EC9
:102BC000B11CD5018C9185218F2BF50180830F5F7E
:102BD0001F4F2196091570F2CE0CDF1C4E0D5F1DA4
:102BE0003F5F460F571FC60ED71E80E8680E711C48
:102BF000B7CF2E2D261BE40FF51FAA59BD4F40E875
:102C000050E049195040602F6919770B660F771F04
:102C100081E0082C01C0880F0A94EAF7C82E192D0C
:102C2000CF93DF93ED01EF96EF9622966590A590F6
:102C3000882059F06C9C3001AC9C500137302CF44A
:102C4000F880B094FB20F728F992332332F0FC90FF
:102C5000A094FA20F628FD9201C011961A9531F73A
:102C60002A9551F0192D33951124E60FF11DA40F6B
:102C7000B11DC40FD11DDACFDF91CF9111249ECEAB
:102C800081109BCFA4CF8110F8CEFFCE81101ECF34
:102C900024CF811044CF4BCFCF92DF92EF92FF929F
:102CA0000F931F93CF93DF93EA01F22E98015C2DCF
:102CB000209771F1FE0104913196E49122964F2DF7
:102CC0004E29D9F0F1E0CF2ED12C4E2F477009F4C8
:102CD000C12CAE2FA695A695A695AC0D4A2F400304
:102CE000D00111245330E9F4AA0FBB1FFA9E6001F2
:102CF000FB9ED00C1124CC0DDD1D5F3F29F452E06A
:102D00002030320709F051E0C52EEE2EAE01D0DDA5
:102D1000DF91CF911F910F91FF90EF90DF90CF90B7
:102D200008952030320711F3EA9E6001EB9ED00C2B
:102D300011242C0D3D1DDACFCF92EF920F931F93EC
:102D400032E0C32EE12C00E010E0A6DF1F910F91CE
:102D5000EF90CF900895CF92DF92EF92FF920F9372
:102D60001F93CF93DF937C016A01EB0100E010E039
:102D70000C151D0551F4C801DF91CF911F910F91E2
:102D8000FF90EF90DF90CF900895F7010190F081D0
:102D9000E02D0190F081E02D6881C7010995892B14
:102DA00051F321960F5F1F4FE3CFDC0160307607B0
:102DB00061F0ED91FD91129722813381CB010E9448
:102DC0005B1FAC01CD01F901099480E090E008950A
:102DD000EF92FF920F931F93CF93DF938C017B01B0
:102DE000C0E0D0E0F701EC0FFD1F6491603069F0A6
:102DF000F8010190F081E02D0190F081E02DC801F3
:102E00000995892B11F02196EDCFCE01DF91CF915D
:102E10001F910F91FF90EF900895C7CF6F927F920F
:102E20008F929F92AF92BF92CF92DF92EF92FF92DA
:102E30000F931F93CF93DF93CDB7DEB7A1970FB654
:102E4000F894DEBF0FBECDBF3C01B42EA52E962E4A
:102E5000872E19A2223008F42AE0C22ED12CE12CB0
:102E6000F12C8E010F5D1F4F6B2D7A2D892D982D22
:102E70009601A7013CD78B2D9A2DA92DB82DB22EE6
:102E8000A32E942E852E6A300CF5605DF8016293B6
:102E90008F018C159D05AE05BF0530F7BF01C3013D
:102EA00084DFA1960FB6F894DEBF0FBECDBFDF91D1
:102EB000CF911F910F91FF90EF90DF90CF90BF9037
:102EC000AF909F908F907F906F900895695CDECF58
:102ED0002030320749F4FC010190F081E02D01908F
:102EE000F081E02D642F099499CF9A01462F50E08C
:102EF00060E070E0EDCF00977040604009F0D2C70D
:102F00000895CF92DF92EF92FF926B017C01C11482
:102F1000DC04EC04FC0431F083D79601A70109D747
:102F20006B017C01B601C701FF90EF90DF90CF905D
:102F30000895CF92DF92EF92FF926B017C01C2164F
:102F4000D306E406F5065CF42C193D094E095F0929
:102F5000B901CA01D6DFC60ED71EE81EF91EB6019A
:102F6000C701FF90EF90DF90CF9008950895BBD0F8
:102F7000FDDF81E796E0CAD40E94710EC0E0D0E088
:102F80000E94730E2097E1F30E940000F9CF1F9278
:102F90001FB61F9211242F933F938F939F93AF934C
:102FA000BF938091690690916A06A0916B06B091DB
:102FB0006C0630916806232F2D5F2D3750F5019652
:102FC000A11DB11D209368068093690690936A063F
:102FD000A0936B06B0936C0680916D0690916E067F
:102FE000A0916F06B09170060196A11DB11D80934E
:102FF0006D0690936E06A0936F06B0937006BF9116
:10300000AF919F918F913F912F911F901FBE1F9065
:103010001895232F2A570296A11DB11DD3CF2FB784
:10302000F8946091690670916A0680916B069091A0
:103030006C062FBF08953FB7F89480916D0690916C
:103040006E06A0916F06B091700626B5A89B04C0CD
:103050002F3F11F00196A11D3FBFBA2FA92F982F26
:10306000822FBF73B064880F991FAA1FBB1FD8F7A8
:10307000BC01CD0108958F929F92AF92BF92CF92E3
:10308000DF92EF92FF924B015C01D5DF6B017C0177
:1030900081149804A804B804E9F04AD4CCDFDC0118
:1030A000CB018C199D09AE09BF09883E9340A04011
:1030B000B04070F381E0881A9108A108B10888EE49
:1030C000C80E83E0D81EE11CF11C81149804A804EA
:1030D000B80421F7FF90EF90DF90CF90BF90AF90B2
:1030E0009F908F900895789484B5826084BD84B554
:1030F000816084BD85B5826085BD85B5816085BDF3
:1031000080916E00816080936E00109281008091AA
:103110008100826080938100809181008160809332
:103120008100809180008160809380008091910077
:1031300082608093910080919100816080939100E2
:10314000809190008160809390008091C1008460A4
:103150008093C1008091C10082608093C100809102
:10316000C10081608093C1008091C3008160809321
:10317000C3008091C00082608093C0008091C20033
:1031800081608093C20080917A00846080937A008D
:1031900080917A00826080937A0080917A008160C9
:1031A00080937A0080917A00806880937A000895F5
:1031B000611105C0289884E68093790608956150CE
:1031C0002091F100FC012193CF01F2CF40917406D0
:1031D000509175062091720630917306421753077D
:1031E000B4F49091E8009570E1F39091E80092FDBD
:1031F00019C08093F10080917406909175068395B3
:103200008F7390E0892B19F48EEF8093E800809102
:1032100074069091750601968093740690937506D6
:1032200081E0089580E00895EF92FF920F931F933D
:10323000CF93DF93F82E192F062FE42E862F8F5F62
:10324000880FC4DF83E0C2DFCF2DD12F0C0F1D2FDD
:10325000111DC017D10711F481E00EC0E11499F0DF
:10326000FE018491B3DFF82E80E0B0DF9F2D98231C
:10327000892F21969111EDCFDF91CF911F910F9161
:10328000FF90EF9008958881EDCF8091D700816005
:103290008093D70080EA8093D80089B5806189BD8A
:1032A00089B5826089BD09B400FEFDCF61E070E0A0
:1032B00080E090E0E0DE8091D8008F7C8061809398
:1032C000D8008091E000807F8093E0000895CF9344
:1032D000DF930F92CDB7DEB71982CE0101968CD362
:1032E000BFD49E012F5F3F4FB90135D489810F9024
:1032F000DF91CF9108959FB7F89487708093E9008C
:103300008091F2009FBF089590917806911103C0BB
:103310008FEF9FEF089557FDFBCF3FB7F89487706D
:103320008093E9002091F200822F90E0421751052E
:103330000CF4CA01282F44E621110BC0009739F084
:103340002091F200211103C02BE62093E8003FBF3B
:10335000089521502898409379065091F100FB017F
:103360005193BF01E9CFCF93DF930F92CDB7DEB773
:1033700041E050E0BE016F5F7F4FC6DF019731F43F
:10338000898190E00F90DF91CF9108958FEF9FEFAB
:10339000F9CF2FB7F89487708093E9009091E800F7
:1033A000892F807295FF04C09091F20080E4891B00
:1033B0002FBF08959F92AF92BF92CF92DF92EF926C
:1033C000FF920F931F93CF93DF93C82E8B017A0147
:1033D0008091780681110EC08FEF9FEFDF91CF9122
:1033E0001F910F91FF90EF90DF90CF90BF90AF9023
:1033F0009F9008958091760680FF05C08091E0003F
:1034000082608093E000E701D12C8AEFB82E8C2DEA
:103410008770982E9AE3A92E209709F457C046C0CA
:10342000C817D1050CF48C2F9FB7F8949092E9003F
:103430002091E80025FD02C09FBFEECF282F30E08D
:10344000C81BD040C5FE0CC0811106C0D11401F1CB
:10345000A092E800D12CF0CF81501092F100F4CF6F
:10346000F801C7FC07C0A80110C0815044914093E7
:10347000F10031968111F9CF020F131FE7CF815070
:10348000FA0141914093F100AF018111F8CFF4CFDF
:103490008091E80085FD07C0A092E800DD24D39468
:1034A000209751F2D7CF209771F09FBF8C2D71DFFD
:1034B0008111B6CFBA9409F48FCF61E070E080E05B
:1034C00090E0D9DDA9CFC6FC0BC09FBFC0E0D0E023
:1034D000D110ECCF5D9884E680937A06C7017ECF49
:1034E0008AE38093E800F1CF1092E900109274060D
:1034F0001092750680937206909373060895DF927A
:10350000EF92FF920F931F93CF93DF93D82E8A01F0
:10351000EB017B01E40EF51ECE15DF0549F4C80171
:10352000DF91CF911F910F91FF90EF90DF90089561
:10353000D7FE09C0FE01849149DE21968111ECCFAE
:103540000FEF1FEFECCF8881F7CFCF92DF92EF9292
:10355000FF920F931F93CF93DF936C017B01EB01DD
:10356000209751F4C701DF91CF911F910F91FF90E8
:10357000EF90DF90CF9008958E01C134D10514F003
:1035800000E410E08091E80082FFFCCFC7018C1BB3
:103590009D0B602F8C0D9D1D0BDE8BEF8093E80043
:1035A000C01BD10BDDCF1F920F920FB60F921124CB
:1035B000DF92EF92FF920F931F932F933F934F93BE
:1035C0005F936F937F938F939F93AF93BF93EF938B
:1035D000FF93CF93DF93CDB7DEB76C97DEBFCDBF40
:1035E0001092E9008091E80083FF2EC08E010B5EEF
:1035F0001F4F68E0C801DCDD82EF8093E8008D8911
:10360000D02E012F87FF11C09091E80090FFFCCFD2
:10361000982F907609F0E4C02F89388DEE89EA3032
:1036200080F4F0E0E754F04EA0C39EEF9093E800E2
:10363000EFCF803839F5809177068093F1001092B2
:10364000F1008EEF8093E8006C960FB6F894DEBF21
:103650000FBECDBFDF91CF91FF91EF91BF91AF91A1
:103660009F918F917F916F915F914F913F912F919A
:103670001F910F91FF90EF90DF900F900FBE0F9072
:103680001F9018951092F100DACF8111DACF213016
:103690003040B9F6809177068D7F80937706D1CF41
:1036A0008111CFCF2130304061F680917706826062
:1036B000F4CF8F899091E80090FFFCCF80688093D1
:1036C000E300BFCF188DEB8CFC8C123011F580E03D
:1036D00090E00ADFFCDD1F8299E099831A8391E074
:1036E0009E8390EA98879AEF99872091740630918B
:1036F0007506275F3F4F2B833C838D83C701F4DE24
:1037000049E050E0BE016F5F7F4F80E0F8DEDFDD13
:1037100098CFC701E9DEA4D26D2D702F45D2009756
:1037200031F00CF08ECF81E28093EB008DCF113021
:1037300031F11330C1F78F89803049F1823041F483
:1037400040E867E088EC96E06FDD803061F379CF88
:10375000813029F440E86BE08CEB96E0F5CF8330C4
:1037600011F77ED29E012F5F3F4FB9013CD2CE01AF
:103770000196A1D340E0682FCE010196E5CF6AEA19
:1037800076E0FB01449150E080E8B9DE5ACF60ED6D
:1037900076E0F7CF81E08093F10053CF837009F09A
:1037A000C2CFE0E3F1E081E021E036E390819030A8
:1037B00071F031968093E9002093EB00DF019E9138
:1037C0009093EC003093ED008F5F873079F78EE7B0
:1037D0008093EA001092EA008F898093780631CFB7
:1037E0008B8D9C8D81DE898D811104C08D2D902F54
:1037F0000DD1ABCF35D26D2D702F14D2A6CF8093C3
:10380000E9008091F200803019F08AE38093E800AB
:1038100008951F920F920FB60F9211242F933F938A
:103820004F935F936F937F938F939F93AF93BF93C8
:10383000CF93EF93FF93C091E1008091E100837FEC
:103840008093E100C3FF0FC01092E90081E08093F4
:10385000EB001092EC0082E38093ED00109278066A
:1038600088E08093F000C2FF1AC083E0C8DF809137
:103870007A06803041F080917A06815080937A06F2
:10388000811101C05D9A80917906803041F080916C
:103890007906815080937906811101C0289AC4FF6E
:1038A00023C08091E2008E7E81608093E20080914F
:1038B000E1008F7E8093E100809176068E7E8061AC
:1038C00080937606FF91EF91CF91BF91AF919F9139
:1038D0008F917F916F915F914F913F912F910F90B9
:1038E0000FBE0F901F901895C0FFECCF8091E200A3
:1038F0008E7E80618093E2008091E1008E7E8093D5
:10390000E100809176068E7E8160DACF1092780693
:103910001092770610927606B8DC8091E1008E7ED8
:103920008093E1008DE08093E200559A209A0895FB
:103930000895CF93DF930F92CDB7DEB76983FC0173
:103940000190F081E02D0280F381E02D41E050E014
:10395000BE016F5F7F4F09950F90DF91CF91089562
:10396000CF93DF93EC018C859D8597FF04C082E0A7
:10397000FADC8C879D87DF91CF91089583E009DD84
:1039800090E0089583E03BCFFC018485958597FD09
:1039900005C082E0B0DC90E00196089582E0ABDCE7
:1039A00090E00895FC018485958597FF02C082E030
:1039B000DACC2FEF3FEF248735870895CF93DF933D
:1039C000EC0180914101803029F083E0F3DC18168E
:1039D00019062CF081E090E08A831B8280E0DF9161
:1039E000CF910895EEEFFFE72591359181E02B3FD0
:1039F0003C4D09F080E00895FC0190819E5F90832A
:103A000042E450E064ED76E080E879CDFC0181810C
:103A10009081913A61F4813211F080E0089547E09D
:103A200050E06AE371E080E06ADD81E00895913260
:103A3000A1F7833269F482819381A0E0B0E08093A2
:103A4000360190933701A0933801B0933901EDCF3F
:103A5000803231F467E070E08AE391E076DDE5CF13
:103A6000823219F7828180934101BCDFE0E0F8E007
:103A7000803011F0EEEFFAE080913A0190913B0135
:103A8000A0913C01B0913D0110979440804BD9F436
:103A90008091410180FD17C0EE3F8AE0F80779F57B
:103AA00087E797E780839183809160008093CB06BE
:103AB00088E19BE00FB6F894A895809360000FBE54
:103AC00090936000B2CF808191818737980709F089
:103AD000ACCFA89580916000886180936000809150
:103AE000CB0680936000EE3FFA40A9F08091FE0A79
:103AF0009091FF0A809300089093010896CF8091DF
:103B00000008909101088737980751F28093FE0AC8
:103B10009093FF0AC5CF1092FE0A1092FF0A85CF3C
:103B200010927D0610927E0688EE93E080937F06C9
:103B300090938006109281061092820681EB91E0AC
:103B400080937B0690937C068FEF9FEF8093870690
:103B5000909388060895EF92FF920F931F93CF934F
:103B6000DF937B01FC01C281D38100E010E020974C
:103B700041F4C801DF91CF911F910F91FF90EF9019
:103B80000895E881F9810280F381E02DB701CE012B
:103B9000099597FD06C0080F191F0884D985C02D07
:103BA000E6CF0FEF1FEFE5CF0F931F93CF93DF9378
:103BB0008B01FC01C281D381209739F480E090E031
:103BC000DF91CF911F910F910895E881F9810480D1
:103BD000F581E02DB801CE010995009789F7088499
:103BE000D985C02DE9CF0F931F93CF93DF938B011E
:103BF000FC01C281D381209739F4F8011082DF9152
:103C0000CF911F910F910895E881F9810680F78186
:103C1000E02DB801CE010995080F111D0884D98542
:103C2000C02DE9CF0F931F93CF93DF938B01FC013E
:103C3000C281D381209731F480E0DF91CF911F9131
:103C40000F910895E881F9810190F081E02DB8018C
:103C5000CE0109958111F1CF0884D985C02DEACF15
:103C60008091CC0681110DC082E08093D40684E05F
:103C70008093D5061092D6061092D70681E08093E5
:103C8000CC0684ED96E00895992778E0880F991F77
:103C9000961708F0961B881F7A95C9F780950895A6
:103CA000AA1BBB1B51E107C0AA1FBB1FA617B70762
:103CB00010F0A61BB70B881F991F5A95A9F780957E
:103CC0009095BC01CD01089597FB072E16F4009442
:103CD00006D077FD08D0E4DF07FC05D03EF49095D0
:103CE00081959F4F0895709561957F4F0895A1E24A
:103CF0001A2EAA1BBB1BFD010DC0AA1FBB1FEE1F66
:103D0000FF1FA217B307E407F50720F0A21BB30BB0
:103D1000E40BF50B661F771F881F991F1A9469F72C
:103D200060957095809590959B01AC01BD01CF0188
:103D30000895052E97FB16F400940FD057FD05D07B
:103D4000D6DF07FC02D046F408C050954095309568
:103D500021953F4F4F4F5F4F0895909580957095F7
:103D600061957F4F8F4F9F4F0895EE0FFF1F059076
:103D7000F491E02D099409D0A59F900DB49F900D6A
:103D8000A49F800D911D11240895A29FB001B39F9F
:103D9000C001A39F700D811D1124911DB29F700D54
:103DA000811D1124911D0895A0E0B0E0E9EDFEE130
:103DB000B1C08C01FC0180819181A281B3811097F7
:103DC0009040804021F484E299EDABE5B7E0BC017E
:103DD000CD012DE133EF41E050E0ABDF69017A0125
:103DE0009B01AC01A7EAB1E4C6DFEB01FC01ACEE3C
:103DF000B4EF9601A70180D0C60FD71FE81FF91FA7
:103E00001AF42197E040F048D801CD93DD93ED936B
:103E1000FD93BE01CF019F77CDB7DEB7E8E096C036
:103E2000EF92FF920F931F93CF93DF938091000146
:103E300090910101A0910201B0910301109790406F
:103E4000804021F484E299EDABE5B7E0BC01CD01FF
:103E50002DE133EF41E050E06CDF79018A019B01F5
:103E6000AC01A7EAB1E487DFEB01FC01ACEEB4EFF3
:103E70009701A80141D0C60FD71FE81FF91F1AF4F8
:103E80002197E040F048C0930001D0930101E093F6
:103E90000201F0930301BE01CF019F77CDB7DEB7DA
:103EA000E6E056C060930001709301018093020127
:103EB000909303010895FC0101900020E9F780959B
:103EC00090958E0F9F1F0895F999FECF92BD81BDE9
:103ED000F89A992780B50895262FF999FECF1FBA31
:103EE00092BD81BD20BD0FB6F894FA9AF99A0FBE23
:103EF00001960895B7FF3FCF3EDF821B930B0895D5
:103F00002F923F924F925F926F927F928F929F92E9
:103F1000AF92BF92CF92DF92EF92FF920F931F93D7
:103F2000CF93DF93CDB7DEB7CA1BDB0B0FB6F89488
:103F3000DEBF0FBECDBF09942A88398848885F84C8
:103F40006E847D848C849B84AA84B984C884DF8039
:103F5000EE80FD800C811B81AA81B981CE0FD11D1D
:103F60000FB6F894DEBF0FBECDBFED010895F894F3
:103F7000FFCF191B451B211B501B211B591B621B0B
:063F8000931BCA1BCE1BBF
:103F860001000000436F6E6772617473206F6E20CC
:103F9600746F70200053636F7265733A2000476137
:103FA6006D65204F766572000000804001011000AB
:103FB600C18081000000FFFFFFFF00E1000000005C
:103FC6000000F7546E196D656E75202D2042006154
:103FD6006363656C65726174696F6E202D204100A4
:103FE6006D6F76656D656E74202D206172726F77C8
:103FF600004C6576656C3A2000636F6E74726F6C68
:1040060073006C6561646572626F726400737461DB
:104016007274002E2000546F702067616D65727394
:104026000000000000DD12AB16CC0ECF0E00000023
:1040360000991CDE1CBE1CC21CC41CD21CB01C0079
:00000001FF
